:020000040800F2
:100000000000052099140008BD050008BF05000880
:10001000C1050008C3050008C50500080000000070
:10002000000000000000000000000000C7050008FC
:10003000C905000800000000CB050008CD05000838
:10004000E9140008E9140008E9140008E91400089C
:10005000E9140008E9140008E9140008E91400088C
:10006000E9140008E9140008E9140008E91400087C
:10007000E9140008E9140008E9140008E91400086C
:10008000E9140008E9140008E9140008E91400085C
:10009000E9140008E9140008E9140008E91400084C
:1000A000E9140008E9140008E9140008E91400083C
:1000B000E9140008E9140008E9140008E91400082C
:1000C000E9140008E9140008E9140008E91400081C
:1000D000E9140008E9140008E9140008E91400080C
:1000E000E9140008E9140008E9140008E9140008FC
:1000F000E9140008E9140008E9140008E9140008EC
:10010000E9140008E9140008E9140008E9140008DB
:10011000E9140008E9140008E9140008E9140008CB
:10012000D5050008E9140008E9140008E9140008DE
:10013000E9140008E9140008E9140008E9140008AB
:10014000E9140008E9140008E9140008E91400089B
:10015000E9140008E9140008E9140008E91400088B
:10016000E9140008E9140008E9140008E91400087B
:10017000E9140008E9140008000000000000000075
:10018000E9140008E9140008E9140008E91400085B
:10019000E9140008E914000800000000E914000850
:1001A000E9140008E9140008000000000000000045
:1001B000E91400080000000000000000E914000835
:1001C000E9140008E9140008E9140008E91400081B
:0801D000E9140008E91400081D
:1001D800034613F8012B002AFBD1181A013870477F
:1001E80053B94AB9002908BF00281CBF4FF0FF3196
:1001F8004FF0FF3000F00CB8ADF1080C6DE904CEFB
:1002080001F09CF9DDF804E0DDE9022304B0704751
:10021800704700BF0348044B834202D0034B03B12D
:10022800184770470C0000200C0000200000000058
:100238000548064B1B1AD90F01EBA301491002D040
:10024800034B03B1184770470C0000200C00002036
:100258000000000010B5064C237843B9FFF7DAFF19
:10026800044B13B10448AFF300800123237010BD81
:100278000C000020000000000C18000808B5054B11
:100288001BB105490548AFF30080BDE80840FFF7FA
:10029800CFBF00BF00000000100000200C180008AD
:1002A80072B6FEE700B595B03422002107A801F028
:1002B8003DF9002302930393049305930693009357
:1002C800184A116C41F080511164126C02F080528E
:1002D8000092009A0193144A116841F44041116058
:1002E800126802F440420192019A02220792012206
:1002F8000A9210220B920D9307A800F0B5FA68B97C
:100308000F2302930021039104910591069102A8FD
:1003180000F0D4F920B915B05DF804FBFFF7C0FF71
:10032800FFF7BEFF003802400070004000B587B0FC
:1003380000F00AFFFFF7B6FF00F020F800F0A8F879
:100348000C4B0DF1040C0FCBACE807002CF8023B6A
:100358001B0C8CF800300023CDF813308DF81730C3
:1003680001A8FFF735FF012382B201A9024801F075
:1003780018F8E5E724180008880000202DE9F04166
:100388008AB000240594069407940894099400946C
:100398003A4B1A6B42F080021A631A6B02F0800221
:1003A8000092009A01941A6B42F004021A631A6BC5
:1003B80002F004020192019A02941A6B42F00102BF
:1003C8001A631A6B02F001020292029A03941A6BE2
:1003D80042F002021A631A6B02F002020392039AB5
:1003E80004941A6B42F008021A631B6B03F00803AB
:1003F8000493049BDFF8948022464FF4E051404672
:1004080000F02AFD1E4F22460421384600F024FD44
:100418001C4D22462021284600F01EFDF32305939B
:100428000694079405A9184800F026FC4FF4E053F9
:100438000593012606960794089405A9404600F0FE
:100448001BFC0423059306960794089405A93846CF
:1004580000F012FC102305930694079405A928467A
:1004680000F00AFC2023059306960794089405A932
:10047800284600F001FC0AB0BDE8F08100380240CF
:10048800000C024000040240000002400008024044
:1004980008B50A480A4B03604FF4E1334360002370
:1004A8008360C36003610C2242618361C36100F011
:1004B80049FF00B908BDFFF7F3FEFBE788000020FD
:1004C80000440040F0B58BB00023059306930793D2
:1004D800089309930368314A934204D0304A9342FF
:1004E80024D00BB0F0BD002100912E4B1A6C42F4C1
:1004F80000321A641A6C02F400320092009A0191D8
:100508001A6B42F001021A631B6B03F0010301939B
:10051800019B0C23059302230693032308930723C7
:10052800099305A9204800F0A7FBDAE70024029404
:100538001C4B1A6C42F480221A641A6C02F4802252
:100548000292029A03941A6B42F004021A631A6B1D
:1005580002F004020392039A04941A6B42F0020216
:100568001A631B6B03F002030493049B2023059377
:1005780002270697032608960725099505A90B481B
:1005880000F07AFB4FF4806305930697079408966A
:10059800099505A9064800F06FFBA2E70044004052
:1005A80000480040003802400000024000080240B5
:1005B80000040240FEE7FEE7FEE7FEE7FEE77047BD
:1005C8007047704708B500F0D9FD08BD08B5024866
:1005D80000F048FC08BD00BF2800002082B00021C0
:1005E80000910B4B5A6C42F480425A645A6C02F4E4
:1005F80080420092009A01911A6C42F080521A646B
:100608001B6C03F080530193019B02B0704700BF3D
:100618000038024008B5264B9B6803F00C03042BF6
:1006280041D0082B41D1224B5A6802F03F025B6847
:1006380013F4800F12D01E4B5968C1F388111D485E
:100648000023A1FB0001FFF7CBFD194B5B68C3F347
:10065800014301335B00B0FBF3F027E0144B58680B
:10066800C0F388104FEA401CBCEB000C6EEB0E0E7A
:100678004FEA8E1343EA9C634FEA8C11B1EB0C01ED
:1006880063EB0E03DB0043EA5173C90011EB000C66
:1006980043F10003990200234FEA8C2041EA9C5160
:1006A800FFF79EFDD1E7034800E0034808BD00BFFF
:1006B8000038024040787D010024F400002800F052
:1006C8009B8070B50D4604464F4B1B6803F007032B
:1006D8008B4208D2CBB24C4A1370136803F007035D
:1006E8008B4240F08B80236813F0020F17D013F071
:1006F800040F04D0454A936843F4E0539360236899
:1007080013F0080F04D0414A936843F460439360A0
:100718003E4A936823F0F003A1680B439360236873
:1007280013F0010F32D06368012B21D09A1E012AE1
:1007380025D9364A126812F0020F61D033498A6807
:1007480022F0030213438B6000F024FD06462F4B72
:100758009B6803F00C036268B3EB820F16D000F0BD
:1007680019FD801B41F288339842F0D9032042E0FA
:10077800264A126812F4003FE0D101203BE0234AE8
:10078800126812F0007FD9D1012034E01E4B1B689B
:1007980003F00703AB4207D9EAB21B4B1A701B6878
:1007A80003F00703AB422DD1236813F0040F06D0E2
:1007B800164A936823F4E053E1680B439360236877
:1007C80013F0080F07D0114A936823F46043216996
:1007D80043EAC1039360FFF71DFF0C4B9B68C3F30B
:1007E80003130B4AD35CD8400A4B18600A4B1868AD
:1007F80000F084FC002070BD012070470120FAE75A
:100808000120F8E70120F6E7003C024000380240EA
:10081800381800080800002004000020014B186860
:10082800704700BF0800002008B5FFF7F7FF044B2A
:100838009B68C3F38223034AD35CD84008BD00BF3A
:10084800003802404818000808B5FFF7E7FF044BD6
:100858009B68C3F34233034AD35CD84008BD00BF4A
:100868000038024048180008002800F0E98170B5F7
:1008780082B00446036813F0010F3BD09F4B9B687E
:1008880003F00C03042B2CD09C4B9B6803F00C0347
:10089800082B21D06368B3F5803F4FD0B3F5A02F64
:1008A80052D0964B1A6822F480321A601A6822F4E1
:1008B80080221A606368002B50D000F06BFC05465C
:1008C8008E4B1B6813F4003F14D100F063FC401BEF
:1008D8006428F5D90320BAE1884B5B6813F4800FCC
:1008E800D8D0864B1B6813F4003F03D06368002BF5
:1008F80000F0A881236813F0020F54D07F4B9B6847
:1009080013F00C0F3ED07D4B9B6803F00C03082BB3
:1009180033D0E368002B68D0794B01221A6000F0CD
:1009280039FC0546754B1B6813F0020F54D100F0D3
:1009380031FC401B0228F5D9032088E16F4A13686F
:1009480043F480331360B5E76C4B1A6842F4802295
:100958001A601A6842F480321A60ABE700F01AFC99
:100968000546664B1B6813F4003FC3D000F012FC29
:10097800401B6428F5D9032069E1604B5B6813F4D8
:10098800800FC6D15D4B1B6813F0020F03D0E368DC
:10099800012B40F05981594A136823F0F803216963
:1009A80043EAC1031360236813F0080F42D0636958
:1009B8006BB3534B0122C3F8802E00F0EBFB0546C6
:1009C8004E4B5B6F13F0020F34D100F0E3FB401B7A
:1009D8000228F5D903203AE1484A136823F0F803BE
:1009E800216943EAC1031360DDE7454B00221A6021
:1009F80000F0D0FB0546414B1B6813F0020FD2D024
:100A080000F0C8FB401B0228F5D903201FE13C4B2E
:100A18000022C3F8802E00F0BDFB0546374B5B6F04
:100A280013F0020F06D000F0B5FB401B0228F5D9E1
:100A380003200CE1236813F0040F77D02F4B1B6CB5
:100A480013F0805F33D1002301932C4B1A6C42F0D2
:100A580080521A641B6C03F080530193019B01259B
:100A6800284B1B6813F4807F23D0A368012B34D054
:100A7800052B38D0214B1A6F22F001021A671A6F22
:100A880022F004021A67A368002B3DD000F082FB15
:100A980006461A4B1B6F13F0020F46D100F07AFB83
:100AA800801B41F288339842F3D90320CFE0002518
:100AB800D6E7144A136843F48073136000F06AFBA6
:100AC8000646104B1B6813F4807FCED100F062FB02
:100AD800801B0228F5D90320B9E0084A136F43F0B8
:100AE80001031367CFE7054B1A6F42F004021A6738
:100AF8001A6F42F001021A67C5E700BF00380240CA
:100B0800000047420070004000F044FB0646584B86
:100B18001B6F13F0020F08D000F03CFB801B41F262
:100B280088339842F3D9032091E0EDB9A369002BEB
:100B380000F08C804E4A926802F00C02082A54D0C9
:100B4800022B17D04B4B00221A6600F023FB0446F9
:100B5800474B1B6813F0007F45D000F01BFB001BC0
:100B68000228F5D9032072E0414A136C23F0805320
:100B78001364DBE73F4B00221A6600F00BFB0546C7
:100B88003B4B1B6813F0007F06D000F003FB401BB3
:100B98000228F5D903205AE0E369226A1343626AFE
:100BA80043EA8213A26A5208013A43EA0243E26A1C
:100BB80043EA0263226B43EA02732D4A53602D4BCA
:100BC80001221A6600F0E6FA0446294B1B6813F066
:100BD800007F06D100F0DEFA001B0228F5D90320B9
:100BE80035E0002033E0002031E0012B31D0204BEC
:100BF8005B6803F48001E26991422CD103F03F0263
:100C0800216A8A4229D1616A47F6C0721A40B2EB5A
:100C1800811F24D103F44031A26A5208013AB1EB92
:100C2800024F1ED103F07062E16AB2EB016F1AD174
:100C380003F0E043226BB3EB027F16D1002006E0FD
:100C480001207047012002E0012000E0002002B0EE
:100C580070BD0120FBE70120F9E70120F7E701203B
:100C6800F5E70120F3E70120F1E70120EFE700BFF6
:100C7800003802400000474200230F2B00F2E380B7
:100C880070B582B065E085684FEA430E032404FA24
:100C98000EF425EA0405CC6804FA0EF42C438460AB
:100CA800446824EA02044A68C2F300129A402243C4
:100CB80042605CE0DC08083450F8242003F00705A3
:100CC800AD004FF00F0E0EFA05FE22EA0E0E0A696D
:100CD800AA4042EA0E0240F824205CE0062200E026
:100CE800002202FA0EF22A430234574D45F8242016
:100CF800564A94686FEA0C0224EA0C054E6816F40A
:100D0800801F01D04CEA0405504CA560E46802EA53
:100D180004054E6816F4001F01D04CEA04054B4C3C
:100D2800E560646802EA04054E6816F4003F01D0E5
:100D38004CEA0405454C6560246822404D6815F46A
:100D4800803F01D04CEA0402404C226001330F2B53
:100D580077D801229A400C6804EA020C32EA0404AB
:100D6800F4D14C6804F00304013C012C8BD94A6887
:100D780002F00302032A09D0C4685D000322AA40D6
:100D880024EA02048A68AA402243C2604A6802F040
:100D98000302022A8ED004684FEA430E032202FAA5
:100DA8000EF224EA02044A6802F0030202FA0EF282
:100DB800224302604A6812F4403FC7D000220192E1
:100DC800234A546C44F480445464526C02F48042C4
:100DD8000192019A9C08A51C1B4A52F8255003F061
:100DE800030E4FEA8E0E0F2202FA0EF225EA0205D2
:100DF800184A90423FF474AF02F58062904216D0D0
:100E080002F58062904214D002F58062904212D0BE
:100E180002F58062904210D002F5806290420ED0B6
:100E280002F5806290423FF459AF072259E7012248
:100E380057E7022255E7032253E7042251E7052228
:100E48004FE702B070BD704700380140003C0140D8
:100E580000380240000002400AB18161704709046D
:100E680081617047F0B583B0044600230193724B4B
:100E78001D68724BA3FB0535AD0A876D3E68C26DD0
:100E880008239340334210D003681A6812F0040F05
:100E98000BD01A6822F004021A60C26D082393402E
:100EA800BB60436D43F001034365E26D012393404A
:100EB800334209D02268526912F0800F04D0BB6017
:100EC800636D43F002036365E26D0423934033428C
:100ED80009D02268126812F0020F04D0BB60636D5B
:100EE80043F004036365E26D10239340334224D03A
:100EF8002268126812F0080F1FD0BB6023681A68B6
:100F080012F4802F0DD01B6813F4002F04D1236C2A
:100F18009BB12046984710E0A36C73B120469847D0
:100F28000BE01A6812F4807F03D11A6822F00802D5
:100F38001A60236C0BB120469847E26D202393403A
:100F4800334255D02268126812F0100F50D0BB609F
:100F580094F83530DBB2052B0ED023681A6812F4EA
:100F6800802F33D01B6813F4002F2AD1636C002B19
:100F78003ED0204698473BE02268136823F01603CA
:100F880013602268536923F080035361236CA3B173
:100F98002268136823F008031360E26D3F2393402F
:100FA800BB60012384F83530002384F83430236D86
:100FB800002B3FD0204698473CE0A36C002BE7D19C
:100FC800EBE7E36BA3B12046984711E01A6812F4E7
:100FD800807F09D11A6822F010021A60012384F870
:100FE8003530002384F83430E36B0BB12046984742
:100FF800636DFBB1636D13F0010F17D0052384F8FF
:1010080035302268136823F001031360019B013314
:101018000193AB4204D823681B6813F0010FF5D184
:10102800012384F83530002384F83430E36C0BB1A5
:101038002046984703B0F0BD08000020B5814E1B3C
:10104800074AD36823F4E0631B041B0C000200F476
:10105800E060034343F0BF6343F40033D360704759
:1010680000ED00E000B5194BDB68C3F30223C3F1C0
:10107800070CBCF1040F28BF4FF0040C03F1040E59
:10108800BEF1060F18D9033B4FF0FF3E0EFA0CFCD9
:1010980021EA0C0199400EFA03FE22EA0E020A43E5
:1010A80000280BDB1201D2B200F1604000F561406C
:1010B80080F800235DF804FB0023E5E700F00F004B
:1010C8001201D2B2024B1A54F4E700BF00ED00E05F
:1010D80014ED00E00138B0F1807F0BD24FF0E0232F
:1010E8005861054AF02182F82310002098610722F0
:1010F8001A6170470120704700ED00E010B5044602
:101108000E4B1A784FF47A73B3FBF2F30C4A10685B
:10111800B0FBF3F0FFF7DEFF68B90F2C01D901200F
:101128000AE0002221464FF0FF30FFF79BFF054BF6
:101138001C60002000E0012010BD00BF000000205E
:10114800080000200400002008B50B4B1A6842F480
:1011580000721A601A6842F480621A601A6842F4CF
:1011680080721A600320FFF76BFF0F20FFF7C6FF9E
:10117800FFF734FA002008BD003C0240034A11681A
:10118800034B1B780B441360704700BFCC00002052
:1011980000000020014B1868704700BFCC000020F9
:1011A80010B504460268136923F44053C1680B4321
:1011B8001361836802691A4343691A43C3691A436E
:1011C8000168CB6823F4164323F00C031343CB6068
:1011D8000268536923F4407381690B4353610368C0
:1011E800354A93420ED002F5806293420AD002F546
:1011F8008062934206D002F58062934202D0FFF7E4
:1012080013FB01E0FFF720FBE369B3F5004F29D09A
:101218000021031849411B1841F10001C90041EAA6
:101228005371DB00181863684FEA83024FEA93731F
:1012380041F10001FEF7D4FF204AA2FB0031490921
:10124800642303FB11031B013233A2FB03235B0955
:1012580003F0F00202EB011203F00F0321681344BC
:101268008B6010BD0023021843EB0301121841F1F3
:101278000001C90041EA5271D200101841F1000181
:10128800626892185B41FEF7ABFF0C4AA2FB003183
:101298004909642303FB1103DB003233A2FB032358
:1012A8005B095A0002F4F87202EB011203F007031B
:1012B800216813448B60D4E7001001401F85EB516F
:1012C8002DE9F84305460F4616469946DDF8208075
:1012D8002B681C6837EA04040CBF01240024B442BC
:1012E8002DD1B8F1FF3FF3D0B8F1000F05D0FFF7CB
:1012F80051FFA0EB09004045EAD92A6802F10C0326
:1013080053E8003F23F4D0730C3242E8003100293F
:10131800F3D12A6802F1140353E8003F23F00103D4
:10132800143242E800310029F3D1202385F83D30FA
:1013380085F83E30002385F83C30032000E000208B
:10134800BDE8F88358B310B5044690F83D300BB3A8
:10135800242384F83D302268D36823F40053D360F3
:101368002046FFF71DFF2268136923F49043136199
:101378002268536923F02A0353612268D36843F42F
:101388000053D36000202064202384F83D3084F883
:101398003E3010BD80F83C30FFF794F8D8E70120C4
:1013A80070472DE9F04182B01E4690F83D30DBB21F
:1013B800202B54D104460D469046002953D0002ACC
:1013C80053D090F83C30012B51D0012380F83C30A9
:1013D80000230364212380F83D30FFF7DBFE074636
:1013E800A4F82480A4F82680A368B3F5805F05D00C
:1013F8004FF00008002384F83C3012E0236913B151
:101408004FF00008F6E7A8460025F3E738F8023B56
:101418002268C3F308035360E28C92B2013A92B295
:10142800E284E38C9BB273B100963B460022802194
:101438002046FFF745FFE0B9002DE7D015F8012B4E
:1014480023685A60E8E700963B4600224021204680
:10145800FFF736FF78B9202384F83D3000E00220FA
:1014680002B0BDE8F0810120FAE70120F8E7022088
:10147800F6E70320F4E70320F2E70000034AD2F876
:10148800883043F47003C2F88830704700ED00E0FC
:10149800DFF834D00D480E490E4A002302E0D45834
:1014A800C4500433C4188C42F9D30B4A0B4C0023A4
:1014B80001E013600432A242FBD3FFF7DFFF00F024
:1014C80011F8FEF733FF70470000052000000020E8
:1014D8000C000020601800080C000020D00000203C
:1014E800FEE7000070B50D4D0D4C641BA4100026DE
:1014F800A64209D10B4D0C4C00F084F9641BA410D2
:101508000026A64205D170BD55F8043B9847013620
:10151800EEE755F8043B98470136F2E758180008FB
:1015280058180008581800085C18000802440346B8
:10153800934200D1704703F8011BF9E72DE9F04702
:10154800089E0D4604460F46002B4AD18A4294460F
:1015580065D9B2FA82F343B102FA03FCC3F120025F
:101568009F4020FA02F217439C404FEA1C4E1FFA94
:101578008CF5B7FBFEF1220C0EFB117742EA07420D
:1015880001FB05F090420AD91CEB020201F1FF377A
:1015980080F01C81904240F2198102396244121A8B
:1015A800A4B2B2FBFEF00EFB102244EA024400FB98
:1015B80005F5A5420AD91CEB040400F1FF3280F0BE
:1015C8000781A54240F204816444023840EA0140A0
:1015D800641B00211EB1DC400023C6E90043BDE8BE
:1015E800F0878B4208D9002E00F0ED800021C6E973
:1015F80000050846BDE8F087B3FA83F1002949D110
:10160800AB4202D3824200F2F880841A65EB0302EF
:1016180001201746002EE2D0C6E90047DFE702B9ED
:10162800FFDEB2FA82F3002B40F090808A1A4FEA6C
:101638001C471FFA8CFE0121B2FBF7F507FB1520AA
:10164800220C42EA00420EFB05F0904208D91CEB3E
:10165800020205F1FF3802D2904200F2CB804546E3
:10166800121AA4B2B2FBF7F007FB102244EA0244B4
:101678000EFB00FEA64508D91CEB040400F1FF325E
:1016880002D2A64500F2BB801046A4EB0E0440EA45
:1016980005409FE7C1F120078B4022FA07FC4CEA7E
:1016A800030C05FA01F420FA07F3FD404FEA1C4940
:1016B8002343B5FBF9F81FFA8CFE09FB18551C0CDF
:1016C80044EA054408FB0EF5A54202FA01F200FAC5
:1016D80001F00BD91CEB040408F1FF3A80F0888074
:1016E800A54240F28580A8F102086444641B9DB2BB
:1016F800B4FBF9F309FB134445EA044403FB0EFE6B
:10170800A64508D91CEB040403F1FF356CD2A645A5
:101718006AD9023B644443EA0843A3FB0295A4EB5D
:101728000E04AC42C846AE4656D353D056B1B0EBC1
:10173800080264EB0E0404FA07F7CA40CC401743CA
:10174800C6E9007418460021BDE8F087C3F12001FE
:1017580002FA03FC20FA01F225FA01F19D402A431E
:101768004FEA1C471FFA8CFEB1FBF7F007FB101578
:10177800110C41EA054100FB0EF58D4204FA03F411
:1017880008D91CEB010100F1FF382FD28D422DD969
:1017980002386144491B92B2B1FBF7F507FB1511FA
:1017A80042EA014205FB0EF1914208D91CEB020204
:1017B80005F1FF3816D2914214D9023D6244521AFB
:1017C80045EA004138E73146304608E73946E6E65B
:1017D8001046FBE64845A9D2B9EB020865EB0C0EAA
:1017E800013BA3E74546EAE72B4694E74046D1E7A5
:1017F800D0467BE7023D624432E708460AE7644484
:10180800023842E7F8B500BFF8BC08BC9E467047EE
:0C181800F8B500BFF8BC08BC9E46704745
:1018240068656C6C6F5F776F726C64210A0D0000E1
:10183400000000000000000000000000010203049A
:0C18440006070809000000000102030470
:08185000F4FCFF7F0100000021
:0418580085020008FD
:04185C005D02000821
:0C18600001000000100000000024F40053
:040000050800149942
:00000001FF
